{
  "contracts/mocks/StartTokenIdHelper.sol": {
    "StartTokenIdHelper": {
      "abi": [
        {
          "inputs": [
            {
              "internalType": "uint256",
              "name": "startTokenId_",
              "type": "uint256"
            }
          ],
          "stateMutability": "nonpayable",
          "type": "constructor"
        },
        {
          "inputs": [],
          "name": "startTokenId",
          "outputs": [
            {
              "internalType": "uint256",
              "name": "",
              "type": "uint256"
            }
          ],
          "stateMutability": "view",
          "type": "function"
        }
      ],
      "devdoc": {
        "kind": "dev",
        "methods": {},
        "version": 1
      },
      "evm": {
        "bytecode": {
          "linkReferences": {},
          "object": "60a060405234801561001057600080fd5b5060405161010338038061010383398101604081905261002f91610037565b608052610050565b60006020828403121561004957600080fd5b5051919050565b608051609b610068600039600060310152609b6000f3fe6080604052348015600f57600080fd5b506004361060285760003560e01c8063e6798baa14602d575b600080fd5b60537f000000000000000000000000000000000000000000000000000000000000000081565b60405190815260200160405180910390f3fea2646970667358221220af8f67153ac1928dc77485c64621036529ac89e63d4e1c2c4936c07c25efcc3364736f6c634300080d0033",
          "opcodes": "PUSH1 0xA0 PUSH1 0x40 MSTORE CALLVALUE DUP1 ISZERO PUSH2 0x10 JUMPI PUSH1 0x0 DUP1 REVERT JUMPDEST POP PUSH1 0x40 MLOAD PUSH2 0x103 CODESIZE SUB DUP1 PUSH2 0x103 DUP4 CODECOPY DUP2 ADD PUSH1 0x40 DUP2 SWAP1 MSTORE PUSH2 0x2F SWAP2 PUSH2 0x37 JUMP JUMPDEST PUSH1 0x80 MSTORE PUSH2 0x50 JUMP JUMPDEST PUSH1 0x0 PUSH1 0x20 DUP3 DUP5 SUB SLT ISZERO PUSH2 0x49 JUMPI PUSH1 0x0 DUP1 REVERT JUMPDEST POP MLOAD SWAP2 SWAP1 POP JUMP JUMPDEST PUSH1 0x80 MLOAD PUSH1 0x9B PUSH2 0x68 PUSH1 0x0 CODECOPY PUSH1 0x0 PUSH1 0x31 ADD MSTORE PUSH1 0x9B PUSH1 0x0 RETURN INVALID PUSH1 0x80 PUSH1 0x40 MSTORE CALLVALUE DUP1 ISZERO PUSH1 0xF JUMPI PUSH1 0x0 DUP1 REVERT JUMPDEST POP PUSH1 0x4 CALLDATASIZE LT PUSH1 0x28 JUMPI PUSH1 0x0 CALLDATALOAD PUSH1 0xE0 SHR DUP1 PUSH4 0xE6798BAA EQ PUSH1 0x2D JUMPI JUMPDEST PUSH1 0x0 DUP1 REVERT JUMPDEST PUSH1 0x53 PUSH32 0x0 DUP2 JUMP JUMPDEST PUSH1 0x40 MLOAD SWAP1 DUP2 MSTORE PUSH1 0x20 ADD PUSH1 0x40 MLOAD DUP1 SWAP2 SUB SWAP1 RETURN INVALID LOG2 PUSH5 0x6970667358 0x22 SLT KECCAK256 0xAF DUP16 PUSH8 0x153AC1928DC77485 0xC6 CHAINID 0x21 SUB PUSH6 0x29AC89E63D4E SHR 0x2C 0x49 CALLDATASIZE 0xC0 PUSH29 0x25EFCC3364736F6C634300080D00330000000000000000000000000000 "
        },
        "gasEstimates": {
          "creation": {
            "codeDepositCost": "31000",
            "executionCost": "infinite",
            "totalCost": "infinite"
          },
          "external": {
            "startTokenId()": "infinite"
          }
        },
        "methodIdentifiers": {
          "startTokenId()": "e6798baa"
        }
      },
      "storageLayout": {
        "storage": [],
        "types": null
      },
      "userdoc": {
        "kind": "user",
        "methods": {},
        "notice": "This Helper is used to return a dynmamic value in the overriden _startTokenId() function. Extending this Helper before the ERC721A contract give us access to the herein set `startTokenId` to be returned by the overriden `_startTokenId()` function of ERC721A in the ERC721AStartTokenId mocks.",
        "version": 1
      }
    }
  }
}