{
  "_format": "hh-sol-artifact-1",
  "contractName": "StartTokenIdHelper",
  "sourceName": "contracts/mocks/StartTokenIdHelper.sol",
  "abi": [
    {
      "inputs": [
        {
          "internalType": "uint256",
          "name": "startTokenId_",
          "type": "uint256"
        }
      ],
      "stateMutability": "nonpayable",
      "type": "constructor"
    },
    {
      "inputs": [],
      "name": "startTokenId",
      "outputs": [
        {
          "internalType": "uint256",
          "name": "",
          "type": "uint256"
        }
      ],
      "stateMutability": "view",
      "type": "function"
    }
  ],
  "bytecode": "0x60a060405234801561001057600080fd5b5060405161010338038061010383398101604081905261002f91610037565b608052610050565b60006020828403121561004957600080fd5b5051919050565b608051609b610068600039600060310152609b6000f3fe6080604052348015600f57600080fd5b506004361060285760003560e01c8063e6798baa14602d575b600080fd5b60537f000000000000000000000000000000000000000000000000000000000000000081565b60405190815260200160405180910390f3fea2646970667358221220af8f67153ac1928dc77485c64621036529ac89e63d4e1c2c4936c07c25efcc3364736f6c634300080d0033",
  "linkReferences": {},
  "deployedLinkReferences": {}
}