{
  "address": "0x0D57381Ba9921d72637807a039a6199D87cFF7Ea",
  "abi": [
    {
      "inputs": [],
      "stateMutability": "nonpayable",
      "type": "constructor"
    },
    {
      "inputs": [],
      "name": "ApprovalCallerNotOwnerNorApproved",
      "type": "error"
    },
    {
      "inputs": [],
      "name": "ApprovalQueryForNonexistentToken",
      "type": "error"
    },
    {
      "inputs": [],
      "name": "ApproveToCaller",
      "type": "error"
    },
    {
      "inputs": [],
      "name": "BalanceQueryForZeroAddress",
      "type": "error"
    },
    {
      "inputs": [],
      "name": "MintERC2309QuantityExceedsLimit",
      "type": "error"
    },
    {
      "inputs": [],
      "name": "MintToZeroAddress",
      "type": "error"
    },
    {
      "inputs": [],
      "name": "MintZeroQuantity",
      "type": "error"
    },
    {
      "inputs": [],
      "name": "OwnerQueryForNonexistentToken",
      "type": "error"
    },
    {
      "inputs": [],
      "name": "OwnershipNotInitializedForExtraData",
      "type": "error"
    },
    {
      "inputs": [],
      "name": "TransferCallerNotOwnerNorApproved",
      "type": "error"
    },
    {
      "inputs": [],
      "name": "TransferFromIncorrectOwner",
      "type": "error"
    },
    {
      "inputs": [],
      "name": "TransferToNonERC721ReceiverImplementer",
      "type": "error"
    },
    {
      "inputs": [],
      "name": "TransferToZeroAddress",
      "type": "error"
    },
    {
      "inputs": [],
      "name": "URIQueryForNonexistentToken",
      "type": "error"
    },
    {
      "anonymous": false,
      "inputs": [
        {
          "indexed": true,
          "internalType": "address",
          "name": "owner",
          "type": "address"
        },
        {
          "indexed": true,
          "internalType": "address",
          "name": "approved",
          "type": "address"
        },
        {
          "indexed": true,
          "internalType": "uint256",
          "name": "tokenId",
          "type": "uint256"
        }
      ],
      "name": "Approval",
      "type": "event"
    },
    {
      "anonymous": false,
      "inputs": [
        {
          "indexed": true,
          "internalType": "address",
          "name": "owner",
          "type": "address"
        },
        {
          "indexed": true,
          "internalType": "address",
          "name": "operator",
          "type": "address"
        },
        {
          "indexed": false,
          "internalType": "bool",
          "name": "approved",
          "type": "bool"
        }
      ],
      "name": "ApprovalForAll",
      "type": "event"
    },
    {
      "anonymous": false,
      "inputs": [
        {
          "indexed": true,
          "internalType": "uint256",
          "name": "fromTokenId",
          "type": "uint256"
        },
        {
          "indexed": false,
          "internalType": "uint256",
          "name": "toTokenId",
          "type": "uint256"
        },
        {
          "indexed": true,
          "internalType": "address",
          "name": "from",
          "type": "address"
        },
        {
          "indexed": true,
          "internalType": "address",
          "name": "to",
          "type": "address"
        }
      ],
      "name": "ConsecutiveTransfer",
      "type": "event"
    },
    {
      "anonymous": false,
      "inputs": [
        {
          "indexed": true,
          "internalType": "address",
          "name": "previousOwner",
          "type": "address"
        },
        {
          "indexed": true,
          "internalType": "address",
          "name": "newOwner",
          "type": "address"
        }
      ],
      "name": "OwnershipTransferred",
      "type": "event"
    },
    {
      "anonymous": false,
      "inputs": [
        {
          "indexed": true,
          "internalType": "address",
          "name": "from",
          "type": "address"
        },
        {
          "indexed": true,
          "internalType": "address",
          "name": "to",
          "type": "address"
        },
        {
          "indexed": true,
          "internalType": "uint256",
          "name": "tokenId",
          "type": "uint256"
        }
      ],
      "name": "Transfer",
      "type": "event"
    },
    {
      "inputs": [
        {
          "internalType": "address",
          "name": "to",
          "type": "address"
        },
        {
          "internalType": "uint256",
          "name": "tokenId",
          "type": "uint256"
        }
      ],
      "name": "approve",
      "outputs": [],
      "stateMutability": "nonpayable",
      "type": "function"
    },
    {
      "inputs": [
        {
          "internalType": "address",
          "name": "owner",
          "type": "address"
        }
      ],
      "name": "balanceOf",
      "outputs": [
        {
          "internalType": "uint256",
          "name": "",
          "type": "uint256"
        }
      ],
      "stateMutability": "view",
      "type": "function"
    },
    {
      "inputs": [],
      "name": "collectionSize",
      "outputs": [
        {
          "internalType": "uint256",
          "name": "",
          "type": "uint256"
        }
      ],
      "stateMutability": "view",
      "type": "function"
    },
    {
      "inputs": [
        {
          "internalType": "uint256",
          "name": "tokenId",
          "type": "uint256"
        }
      ],
      "name": "getApproved",
      "outputs": [
        {
          "internalType": "address",
          "name": "",
          "type": "address"
        }
      ],
      "stateMutability": "view",
      "type": "function"
    },
    {
      "inputs": [
        {
          "internalType": "uint256",
          "name": "tokenId",
          "type": "uint256"
        }
      ],
      "name": "getOwnershipData",
      "outputs": [
        {
          "components": [
            {
              "internalType": "address",
              "name": "addr",
              "type": "address"
            },
            {
              "internalType": "uint64",
              "name": "startTimestamp",
              "type": "uint64"
            },
            {
              "internalType": "bool",
              "name": "burned",
              "type": "bool"
            },
            {
              "internalType": "uint24",
              "name": "extraData",
              "type": "uint24"
            }
          ],
          "internalType": "struct IERC721A.TokenOwnership",
          "name": "",
          "type": "tuple"
        }
      ],
      "stateMutability": "view",
      "type": "function"
    },
    {
      "inputs": [
        {
          "internalType": "address",
          "name": "owner",
          "type": "address"
        },
        {
          "internalType": "address",
          "name": "operator",
          "type": "address"
        }
      ],
      "name": "isApprovedForAll",
      "outputs": [
        {
          "internalType": "bool",
          "name": "",
          "type": "bool"
        }
      ],
      "stateMutability": "view",
      "type": "function"
    },
    {
      "inputs": [
        {
          "internalType": "uint256",
          "name": "_price",
          "type": "uint256"
        },
        {
          "internalType": "uint256",
          "name": "_startTime",
          "type": "uint256"
        }
      ],
      "name": "isSaleOn",
      "outputs": [
        {
          "internalType": "bool",
          "name": "",
          "type": "bool"
        }
      ],
      "stateMutability": "view",
      "type": "function"
    },
    {
      "inputs": [],
      "name": "maxMintPerAddress",
      "outputs": [
        {
          "internalType": "uint256",
          "name": "",
          "type": "uint256"
        }
      ],
      "stateMutability": "view",
      "type": "function"
    },
    {
      "inputs": [
        {
          "internalType": "uint256",
          "name": "quantity",
          "type": "uint256"
        }
      ],
      "name": "mint",
      "outputs": [],
      "stateMutability": "payable",
      "type": "function"
    },
    {
      "inputs": [],
      "name": "name",
      "outputs": [
        {
          "internalType": "string",
          "name": "",
          "type": "string"
        }
      ],
      "stateMutability": "view",
      "type": "function"
    },
    {
      "inputs": [
        {
          "internalType": "address",
          "name": "owner",
          "type": "address"
        }
      ],
      "name": "numberMinted",
      "outputs": [
        {
          "internalType": "uint256",
          "name": "",
          "type": "uint256"
        }
      ],
      "stateMutability": "view",
      "type": "function"
    },
    {
      "inputs": [],
      "name": "owner",
      "outputs": [
        {
          "internalType": "address",
          "name": "",
          "type": "address"
        }
      ],
      "stateMutability": "view",
      "type": "function"
    },
    {
      "inputs": [
        {
          "internalType": "uint256",
          "name": "tokenId",
          "type": "uint256"
        }
      ],
      "name": "ownerOf",
      "outputs": [
        {
          "internalType": "address",
          "name": "",
          "type": "address"
        }
      ],
      "stateMutability": "view",
      "type": "function"
    },
    {
      "inputs": [],
      "name": "publicPrice",
      "outputs": [
        {
          "internalType": "uint64",
          "name": "",
          "type": "uint64"
        }
      ],
      "stateMutability": "view",
      "type": "function"
    },
    {
      "inputs": [],
      "name": "publicStartTime",
      "outputs": [
        {
          "internalType": "uint32",
          "name": "",
          "type": "uint32"
        }
      ],
      "stateMutability": "view",
      "type": "function"
    },
    {
      "inputs": [],
      "name": "renounceOwnership",
      "outputs": [],
      "stateMutability": "nonpayable",
      "type": "function"
    },
    {
      "inputs": [
        {
          "internalType": "uint256",
          "name": "quantity",
          "type": "uint256"
        }
      ],
      "name": "reserve",
      "outputs": [],
      "stateMutability": "nonpayable",
      "type": "function"
    },
    {
      "inputs": [
        {
          "internalType": "address",
          "name": "from",
          "type": "address"
        },
        {
          "internalType": "address",
          "name": "to",
          "type": "address"
        },
        {
          "internalType": "uint256",
          "name": "tokenId",
          "type": "uint256"
        }
      ],
      "name": "safeTransferFrom",
      "outputs": [],
      "stateMutability": "nonpayable",
      "type": "function"
    },
    {
      "inputs": [
        {
          "internalType": "address",
          "name": "from",
          "type": "address"
        },
        {
          "internalType": "address",
          "name": "to",
          "type": "address"
        },
        {
          "internalType": "uint256",
          "name": "tokenId",
          "type": "uint256"
        },
        {
          "internalType": "bytes",
          "name": "_data",
          "type": "bytes"
        }
      ],
      "name": "safeTransferFrom",
      "outputs": [],
      "stateMutability": "nonpayable",
      "type": "function"
    },
    {
      "inputs": [
        {
          "internalType": "address",
          "name": "operator",
          "type": "address"
        },
        {
          "internalType": "bool",
          "name": "approved",
          "type": "bool"
        }
      ],
      "name": "setApprovalForAll",
      "outputs": [],
      "stateMutability": "nonpayable",
      "type": "function"
    },
    {
      "inputs": [
        {
          "internalType": "string",
          "name": "baseURI",
          "type": "string"
        }
      ],
      "name": "setBaseURI",
      "outputs": [],
      "stateMutability": "nonpayable",
      "type": "function"
    },
    {
      "inputs": [
        {
          "internalType": "uint32",
          "name": "timestamp",
          "type": "uint32"
        },
        {
          "internalType": "uint64",
          "name": "_publicPrice",
          "type": "uint64"
        },
        {
          "internalType": "uint256",
          "name": "_maxMintPerAddress",
          "type": "uint256"
        },
        {
          "internalType": "uint64",
          "name": "_whitelistPrice",
          "type": "uint64"
        },
        {
          "internalType": "uint256",
          "name": "_whitelistMaxMintPerAddress",
          "type": "uint256"
        }
      ],
      "name": "setConfig",
      "outputs": [],
      "stateMutability": "nonpayable",
      "type": "function"
    },
    {
      "inputs": [
        {
          "internalType": "uint256",
          "name": "_root",
          "type": "uint256"
        }
      ],
      "name": "setRoot",
      "outputs": [],
      "stateMutability": "nonpayable",
      "type": "function"
    },
    {
      "inputs": [
        {
          "internalType": "bytes4",
          "name": "interfaceId",
          "type": "bytes4"
        }
      ],
      "name": "supportsInterface",
      "outputs": [
        {
          "internalType": "bool",
          "name": "",
          "type": "bool"
        }
      ],
      "stateMutability": "view",
      "type": "function"
    },
    {
      "inputs": [],
      "name": "symbol",
      "outputs": [
        {
          "internalType": "string",
          "name": "",
          "type": "string"
        }
      ],
      "stateMutability": "view",
      "type": "function"
    },
    {
      "inputs": [
        {
          "internalType": "uint256",
          "name": "tokenId",
          "type": "uint256"
        }
      ],
      "name": "tokenURI",
      "outputs": [
        {
          "internalType": "string",
          "name": "",
          "type": "string"
        }
      ],
      "stateMutability": "view",
      "type": "function"
    },
    {
      "inputs": [],
      "name": "totalMinted",
      "outputs": [
        {
          "internalType": "uint256",
          "name": "",
          "type": "uint256"
        }
      ],
      "stateMutability": "view",
      "type": "function"
    },
    {
      "inputs": [],
      "name": "totalSupply",
      "outputs": [
        {
          "internalType": "uint256",
          "name": "",
          "type": "uint256"
        }
      ],
      "stateMutability": "view",
      "type": "function"
    },
    {
      "inputs": [
        {
          "internalType": "address",
          "name": "from",
          "type": "address"
        },
        {
          "internalType": "address",
          "name": "to",
          "type": "address"
        },
        {
          "internalType": "uint256",
          "name": "tokenId",
          "type": "uint256"
        }
      ],
      "name": "transferFrom",
      "outputs": [],
      "stateMutability": "nonpayable",
      "type": "function"
    },
    {
      "inputs": [
        {
          "internalType": "address",
          "name": "newOwner",
          "type": "address"
        }
      ],
      "name": "transferOwnership",
      "outputs": [],
      "stateMutability": "nonpayable",
      "type": "function"
    },
    {
      "inputs": [],
      "name": "whitelistMaxMintPerAddress",
      "outputs": [
        {
          "internalType": "uint256",
          "name": "",
          "type": "uint256"
        }
      ],
      "stateMutability": "view",
      "type": "function"
    },
    {
      "inputs": [
        {
          "internalType": "bytes32[]",
          "name": "_proof",
          "type": "bytes32[]"
        },
        {
          "internalType": "uint256",
          "name": "quantity",
          "type": "uint256"
        }
      ],
      "name": "whitelistMint",
      "outputs": [],
      "stateMutability": "payable",
      "type": "function"
    },
    {
      "inputs": [],
      "name": "withdraw",
      "outputs": [],
      "stateMutability": "nonpayable",
      "type": "function"
    }
  ],
  "transactionHash": "0xea610a7802b0b066aee382e6b9b949a4baa25a6dd3569f3b8ebf5225e2d2f065",
  "args": [],
  "solcInputHash": "220fe71b23c38a3d4d60764fd90d2a7b",
  "bytecode": "0x60c06040523480156200001157600080fd5b50604051806040016040528060088152602001674672656520596f7560c01b8152506040518060400160405280600781526020016646524545594f5560c81b8152506200006d620000676200010060201b60201c565b62000104565b81516200008290600390602085019062000154565b5080516200009890600490602084019062000154565b50600060019081556009555050600560a052611a0a608052600b80546a2386f26fc10000000000006001600160601b031990911663ffffffff4216171790556032600a55600e80546001600160401b031916661aa535d3d0c0001790556002600d5562000236565b3390565b600080546001600160a01b038381166001600160a01b0319831681178455604051919092169283917f8be0079c531659141344cd1fd0a4f28419497f9722a3daafe3b4186f6b6457e09190a35050565b8280546200016290620001fa565b90600052602060002090601f016020900481019282620001865760008555620001d1565b82601f10620001a157805160ff1916838001178555620001d1565b82800160010185558215620001d1579182015b82811115620001d1578251825591602001919060010190620001b4565b50620001df929150620001e3565b5090565b5b80821115620001df5760008155600101620001e4565b600181811c908216806200020f57607f821691505b6020821081036200023057634e487b7160e01b600052602260045260246000fd5b50919050565b60805160a0516124496200027860003960008181611142015281816111e1015261121901526000818161037101528181610c0c015261139e01526124496000f3fe6080604052600436106101fe5760003560e01c80636b12304e1161011d578063a22cb465116100b0578063c87b56dd1161007f578063e985e9c511610064578063e985e9c514610630578063f2f5a7e514610679578063f2fde38b1461069957600080fd5b8063c87b56dd146105f0578063dc33e6811461061057600080fd5b8063a22cb46514610559578063a2309ff814610579578063a945bf801461058e578063b88d4fde146105d057600080fd5b80638da5cb5b116100ec5780638da5cb5b146104a65780639231ab2a146104c457806395d89b4114610531578063a0712d681461054657600080fd5b80636b12304e1461043157806370a0823114610451578063715018a614610471578063819b25ba1461048657600080fd5b80633ccfd60b11610195578063572849c411610164578063572849c4146103b357806358289fda146103c95780635fd1bbc4146103df5780636352211e1461041157600080fd5b80633ccfd60b1461032a57806342842e0e1461033f57806345c0f5331461035f57806355f804b31461039357600080fd5b806316773fbc116101d157806316773fbc146102b457806318160ddd146102d457806323b872dd146102f75780632904e6d91461031757600080fd5b806301ffc9a71461020357806306fdde0314610238578063081812fc1461025a578063095ea7b314610292575b600080fd5b34801561020f57600080fd5b5061022361021e366004611df1565b6106b9565b60405190151581526020015b60405180910390f35b34801561024457600080fd5b5061024d610756565b60405161022f9190611e66565b34801561026657600080fd5b5061027a610275366004611e79565b6107e8565b6040516001600160a01b03909116815260200161022f565b34801561029e57600080fd5b506102b26102ad366004611eae565b610845565b005b3480156102c057600080fd5b506102b26102cf366004611ef0565b61090b565b3480156102e057600080fd5b50600254600154035b60405190815260200161022f565b34801561030357600080fd5b506102b2610312366004611f50565b6109d7565b6102b2610325366004611fd3565b610bbb565b34801561033657600080fd5b506102b2610e10565b34801561034b57600080fd5b506102b261035a366004611f50565b610f61565b34801561036b57600080fd5b506102e97f000000000000000000000000000000000000000000000000000000000000000081565b34801561039f57600080fd5b506102b26103ae36600461207f565b610f81565b3480156103bf57600080fd5b506102e9600a5481565b3480156103d557600080fd5b506102e9600d5481565b3480156103eb57600080fd5b50600b546103fc9063ffffffff1681565b60405163ffffffff909116815260200161022f565b34801561041d57600080fd5b5061027a61042c366004611e79565b610fe7565b34801561043d57600080fd5b5061022361044c3660046120f1565b610ff2565b34801561045d57600080fd5b506102e961046c366004612113565b611015565b34801561047d57600080fd5b506102b261107d565b34801561049257600080fd5b506102b26104a1366004611e79565b6110e3565b3480156104b257600080fd5b506000546001600160a01b031661027a565b3480156104d057600080fd5b506104e46104df366004611e79565b61124f565b60405161022f919081516001600160a01b0316815260208083015167ffffffffffffffff169082015260408083015115159082015260609182015162ffffff169181019190915260800190565b34801561053d57600080fd5b5061024d61127c565b6102b2610554366004611e79565b61128b565b34801561056557600080fd5b506102b261057436600461212e565b6114b9565b34801561058557600080fd5b506102e9611567565b34801561059a57600080fd5b50600b546105b790640100000000900467ffffffffffffffff1681565b60405167ffffffffffffffff909116815260200161022f565b3480156105dc57600080fd5b506102b26105eb36600461216a565b611577565b3480156105fc57600080fd5b5061024d61060b366004611e79565b6115c1565b34801561061c57600080fd5b506102e961062b366004612113565b61165d565b34801561063c57600080fd5b5061022361064b36600461222a565b6001600160a01b03918216600090815260086020908152604080832093909416825291909152205460ff1690565b34801561068557600080fd5b506102b2610694366004611e79565b611688565b3480156106a557600080fd5b506102b26106b4366004612113565b6116e7565b60007f01ffc9a7000000000000000000000000000000000000000000000000000000006001600160e01b03198316148061071c57507f80ac58cd000000000000000000000000000000000000000000000000000000006001600160e01b03198316145b8061075057507f5b5e139f000000000000000000000000000000000000000000000000000000006001600160e01b03198316145b92915050565b6060600380546107659061225d565b80601f01602080910402602001604051908101604052809291908181526020018280546107919061225d565b80156107de5780601f106107b3576101008083540402835291602001916107de565b820191906000526020600020905b8154815290600101906020018083116107c157829003601f168201915b5050505050905090565b60006107f3826117c6565b610829576040517fcf4700e400000000000000000000000000000000000000000000000000000000815260040160405180910390fd5b506000908152600760205260409020546001600160a01b031690565b600061085082610fe7565b9050336001600160a01b038216146108a25761086c813361064b565b6108a2576040517fcfb3b94200000000000000000000000000000000000000000000000000000000815260040160405180910390fd5b600082815260076020526040808220805473ffffffffffffffffffffffffffffffffffffffff19166001600160a01b0387811691821790925591518593918516917f8c5be1e5ebec7d5bd14f71427d1e84f3dd0314c0f7b2291e5b200ac8c7c3b92591a4505050565b6000546001600160a01b0316331461096a5760405162461bcd60e51b815260206004820181905260248201527f4f776e61626c653a2063616c6c6572206973206e6f7420746865206f776e657260448201526064015b60405180910390fd5b600b805463ffffffff969096167fffffffffffffffffffffffffffffffffffffffff0000000000000000000000009096169590951764010000000067ffffffffffffffff9586160217909455600a91909155600e805467ffffffffffffffff191691909216179055600d55565b60006109e2826117ee565b9050836001600160a01b0316816001600160a01b031614610a2f576040517fa114810000000000000000000000000000000000000000000000000000000000815260040160405180910390fd5b60008281526007602052604090208054338082146001600160a01b03881690911417610a9557610a5f863361064b565b610a95576040517f59c896be00000000000000000000000000000000000000000000000000000000815260040160405180910390fd5b6001600160a01b038516610ad5576040517fea553b3400000000000000000000000000000000000000000000000000000000815260040160405180910390fd5b8015610ae057600082555b6001600160a01b038681166000908152600660205260408082208054600019019055918716808252919020805460010190554260a01b17600160e11b17600085815260056020526040812091909155600160e11b84169003610b7257600184016000818152600560205260408120549003610b70576001548114610b705760008181526005602052604090208490555b505b83856001600160a01b0316876001600160a01b03167fddf252ad1be2c89b69c2b068fc378daa952ba7f163c4a11628f55a4df523b3ef60405160405180910390a4505050505050565b323314610c0a5760405162461bcd60e51b815260206004820152601e60248201527f5468652063616c6c657220697320616e6f7468657220636f6e747261637400006044820152606401610961565b7f000000000000000000000000000000000000000000000000000000000000000081610c396002546001540390565b610c4391906122ad565b1115610c915760405162461bcd60e51b815260206004820152601260248201527f72656163686564206d617820737570706c7900000000000000000000000000006044820152606401610961565b604080513360208201524691810191909152600090606001604051602081830303815290604052805190602001209050610cce83600c548361186e565b610d1a5760405162461bcd60e51b815260206004820152601260248201527f57686974656c6973742069732077726f6e6700000000000000000000000000006044820152606401610961565b600e5433600090815260066020526040902054600d5467ffffffffffffffff9092169160c09190911c90610d4e85836122ad565b1115610d9c5760405162461bcd60e51b815260206004820152601660248201527f63616e206e6f74206d696e742074686973206d616e79000000000000000000006044820152606401610961565b610da63385611884565b610df733610db486846122c5565b6001600160a01b039091166000908152600660205260409020805477ffffffffffffffffffffffffffffffffffffffffffffffff1660c09290921b919091179055565b610e09610e0485846122f1565b6118a2565b5050505050565b6000546001600160a01b03163314610e6a5760405162461bcd60e51b815260206004820181905260248201527f4f776e61626c653a2063616c6c6572206973206e6f7420746865206f776e65726044820152606401610961565b600260095403610ebc5760405162461bcd60e51b815260206004820152601f60248201527f5265656e7472616e637947756172643a207265656e7472616e742063616c6c006044820152606401610961565b6002600955604051600090339047908381818185875af1925050503d8060008114610f03576040519150601f19603f3d011682016040523d82523d6000602084013e610f08565b606091505b5050905080610f595760405162461bcd60e51b815260206004820152601060248201527f5472616e73666572206661696c65642e000000000000000000000000000000006044820152606401610961565b506001600955565b610f7c83838360405180602001604052806000815250611577565b505050565b6000546001600160a01b03163314610fdb5760405162461bcd60e51b815260206004820181905260248201527f4f776e61626c653a2063616c6c6572206973206e6f7420746865206f776e65726044820152606401610961565b610f7c600f8383611d42565b6000610750826117ee565b6000821580159061100257508115155b801561100e5750814210155b9392505050565b60006001600160a01b038216611057576040517f8f4eb60400000000000000000000000000000000000000000000000000000000815260040160405180910390fd5b506001600160a01b031660009081526006602052604090205467ffffffffffffffff1690565b6000546001600160a01b031633146110d75760405162461bcd60e51b815260206004820181905260248201527f4f776e61626c653a2063616c6c6572206973206e6f7420746865206f776e65726044820152606401610961565b6110e16000611930565b565b6000546001600160a01b0316331461113d5760405162461bcd60e51b815260206004820181905260248201527f4f776e61626c653a2063616c6c6572206973206e6f7420746865206f776e65726044820152606401610961565b6111677f000000000000000000000000000000000000000000000000000000000000000082612326565b156111da5760405162461bcd60e51b815260206004820152602c60248201527f63616e206f6e6c79206d696e742061206d756c7469706c65206f66207468652060448201527f6d6178426174636853697a6500000000000000000000000000000000000000006064820152608401610961565b60006112067f00000000000000000000000000000000000000000000000000000000000000008361233a565b905060005b81811015610f7c5761123d337f0000000000000000000000000000000000000000000000000000000000000000611884565b806112478161234e565b91505061120b565b6040805160808101825260008082526020820181905291810182905260608101919091526107508261198d565b6060600480546107659061225d565b3233146112da5760405162461bcd60e51b815260206004820152601e60248201527f5468652063616c6c657220697320616e6f7468657220636f6e747261637400006044820152606401610961565b600b546112ff9067ffffffffffffffff6401000000008204169063ffffffff16610ff2565b61134b5760405162461bcd60e51b815260206004820152601660248201527f73616c6520686173206e6f7420626567756e20796574000000000000000000006044820152606401610961565b600a81111561139c5760405162461bcd60e51b815260206004820152600d60248201527f6d617820313020706572207478000000000000000000000000000000000000006044820152606401610961565b7f0000000000000000000000000000000000000000000000000000000000000000816113cb6002546001540390565b6113d591906122ad565b11156114235760405162461bcd60e51b815260206004820152601260248201527f72656163686564206d617820737570706c7900000000000000000000000000006044820152606401610961565b600a54816114303361165d565b61143a91906122ad565b11156114885760405162461bcd60e51b815260206004820152601660248201527f63616e206e6f74206d696e742074686973206d616e79000000000000000000006044820152606401610961565b6114923382611884565b600b546114b690610e04908390640100000000900467ffffffffffffffff166122f1565b50565b336001600160a01b038316036114fb576040517fb06307db00000000000000000000000000000000000000000000000000000000815260040160405180910390fd5b3360008181526008602090815260408083206001600160a01b03871680855290835292819020805460ff191686151590811790915590519081529192917f17307eab39ab6107e8899845ad3d59bd9653f200f220920489ca2b5937696c31910160405180910390a35050565b600061157260015490565b905090565b6115828484846109d7565b6001600160a01b0383163b156115bb5761159e84848484611a05565b6115bb576040516368d2bf6b60e11b815260040160405180910390fd5b50505050565b60606115cc826117c6565b611602576040517fa14c4b5000000000000000000000000000000000000000000000000000000000815260040160405180910390fd5b600061160c611af0565b9050805160000361162c576040518060200160405280600081525061100e565b8061163684611aff565b604051602001611647929190612367565b6040516020818303038152906040529392505050565b6001600160a01b0381166000908152600660205260408082205467ffffffffffffffff911c16610750565b6000546001600160a01b031633146116e25760405162461bcd60e51b815260206004820181905260248201527f4f776e61626c653a2063616c6c6572206973206e6f7420746865206f776e65726044820152606401610961565b600c55565b6000546001600160a01b031633146117415760405162461bcd60e51b815260206004820181905260248201527f4f776e61626c653a2063616c6c6572206973206e6f7420746865206f776e65726044820152606401610961565b6001600160a01b0381166117bd5760405162461bcd60e51b815260206004820152602660248201527f4f776e61626c653a206e6577206f776e657220697320746865207a65726f206160448201527f64647265737300000000000000000000000000000000000000000000000000006064820152608401610961565b6114b681611930565b600060015482108015610750575050600090815260056020526040902054600160e01b161590565b60008160015481101561183c5760008181526005602052604081205490600160e01b8216900361183a575b8060000361100e575060001901600081815260056020526040902054611819565b505b6040517fdf2d9b4200000000000000000000000000000000000000000000000000000000815260040160405180910390fd5b60008261187b8584611b37565b14949350505050565b61189e828260405180602001604052806000815250611bab565b5050565b803410156118f25760405162461bcd60e51b815260206004820152601660248201527f4e65656420746f2073656e64206d6f7265204554482e000000000000000000006044820152606401610961565b803411156114b657336108fc611908833461238d565b6040518115909202916000818181858888f1935050505015801561189e573d6000803e3d6000fd5b600080546001600160a01b0383811673ffffffffffffffffffffffffffffffffffffffff19831681178455604051919092169283917f8be0079c531659141344cd1fd0a4f28419497f9722a3daafe3b4186f6b6457e09190a35050565b6040805160808101825260008082526020820181905291810182905260608101919091526107506119bd836117ee565b604080516080810182526001600160a01b038316815260a083901c67ffffffffffffffff166020820152600160e01b831615159181019190915260e89190911c606082015290565b604051630a85bd0160e11b81526000906001600160a01b0385169063150b7a0290611a3a9033908990889088906004016123a4565b6020604051808303816000875af1925050508015611a75575060408051601f3d908101601f19168201909252611a72918101906123e0565b60015b611ad3573d808015611aa3576040519150601f19603f3d011682016040523d82523d6000602084013e611aa8565b606091505b508051600003611acb576040516368d2bf6b60e11b815260040160405180910390fd5b805181602001fd5b6001600160e01b031916630a85bd0160e11b149050949350505050565b6060600f80546107659061225d565b604080516080019081905280825b600183039250600a81066030018353600a900480611b0d5750819003601f19909101908152919050565b600081815b8451811015611ba3576000858281518110611b5957611b596123fd565b60200260200101519050808311611b7f5760008381526020829052604090209250611b90565b600081815260208490526040902092505b5080611b9b8161234e565b915050611b3c565b509392505050565b611bb58383611c11565b6001600160a01b0383163b15610f7c576001548281035b611bdf6000868380600101945086611a05565b611bfc576040516368d2bf6b60e11b815260040160405180910390fd5b818110611bcc578160015414610e0957600080fd5b6001546000829003611c4f576040517fb562e8dd00000000000000000000000000000000000000000000000000000000815260040160405180910390fd5b6001600160a01b03831660008181526006602090815260408083208054680100000000000000018802019055848352600590915281206001851460e11b4260a01b178317905582840190839083907fddf252ad1be2c89b69c2b068fc378daa952ba7f163c4a11628f55a4df523b3ef8180a4600183015b818114611cfe57808360007fddf252ad1be2c89b69c2b068fc378daa952ba7f163c4a11628f55a4df523b3ef600080a4600101611cc6565b5081600003611d39576040517f2e07630000000000000000000000000000000000000000000000000000000000815260040160405180910390fd5b60015550505050565b828054611d4e9061225d565b90600052602060002090601f016020900481019282611d705760008555611db6565b82601f10611d895782800160ff19823516178555611db6565b82800160010185558215611db6579182015b82811115611db6578235825591602001919060010190611d9b565b50611dc2929150611dc6565b5090565b5b80821115611dc25760008155600101611dc7565b6001600160e01b0319811681146114b657600080fd5b600060208284031215611e0357600080fd5b813561100e81611ddb565b60005b83811015611e29578181015183820152602001611e11565b838111156115bb5750506000910152565b60008151808452611e52816020860160208601611e0e565b601f01601f19169290920160200192915050565b60208152600061100e6020830184611e3a565b600060208284031215611e8b57600080fd5b5035919050565b80356001600160a01b0381168114611ea957600080fd5b919050565b60008060408385031215611ec157600080fd5b611eca83611e92565b946020939093013593505050565b803567ffffffffffffffff81168114611ea957600080fd5b600080600080600060a08688031215611f0857600080fd5b853563ffffffff81168114611f1c57600080fd5b9450611f2a60208701611ed8565b935060408601359250611f3f60608701611ed8565b949793965091946080013592915050565b600080600060608486031215611f6557600080fd5b611f6e84611e92565b9250611f7c60208501611e92565b9150604084013590509250925092565b634e487b7160e01b600052604160045260246000fd5b604051601f8201601f1916810167ffffffffffffffff81118282101715611fcb57611fcb611f8c565b604052919050565b60008060408385031215611fe657600080fd5b823567ffffffffffffffff80821115611ffe57600080fd5b818501915085601f83011261201257600080fd5b813560208282111561202657612026611f8c565b8160051b9250612037818401611fa2565b828152928401810192818101908985111561205157600080fd5b948201945b8486101561206f57853582529482019490820190612056565b9997909101359750505050505050565b6000806020838503121561209257600080fd5b823567ffffffffffffffff808211156120aa57600080fd5b818501915085601f8301126120be57600080fd5b8135818111156120cd57600080fd5b8660208285010111156120df57600080fd5b60209290920196919550909350505050565b6000806040838503121561210457600080fd5b50508035926020909101359150565b60006020828403121561212557600080fd5b61100e82611e92565b6000806040838503121561214157600080fd5b61214a83611e92565b91506020830135801515811461215f57600080fd5b809150509250929050565b6000806000806080858703121561218057600080fd5b61218985611e92565b93506020612198818701611e92565b935060408601359250606086013567ffffffffffffffff808211156121bc57600080fd5b818801915088601f8301126121d057600080fd5b8135818111156121e2576121e2611f8c565b6121f4601f8201601f19168501611fa2565b9150808252898482850101111561220a57600080fd5b808484018584013760008482840101525080935050505092959194509250565b6000806040838503121561223d57600080fd5b61224683611e92565b915061225460208401611e92565b90509250929050565b600181811c9082168061227157607f821691505b60208210810361229157634e487b7160e01b600052602260045260246000fd5b50919050565b634e487b7160e01b600052601160045260246000fd5b600082198211156122c0576122c0612297565b500190565b600067ffffffffffffffff8083168185168083038211156122e8576122e8612297565b01949350505050565b600081600019048311821515161561230b5761230b612297565b500290565b634e487b7160e01b600052601260045260246000fd5b60008261233557612335612310565b500690565b60008261234957612349612310565b500490565b60006001820161236057612360612297565b5060010190565b60008351612379818460208801611e0e565b8351908301906122e8818360208801611e0e565b60008282101561239f5761239f612297565b500390565b60006001600160a01b038087168352808616602084015250836040830152608060608301526123d66080830184611e3a565b9695505050505050565b6000602082840312156123f257600080fd5b815161100e81611ddb565b634e487b7160e01b600052603260045260246000fdfea26469706673582212206be6f3151765e07528c922a4003352f85e6329038d6298001608924680de336d64736f6c634300080d0033",
  "devdoc": {
    "kind": "dev",
    "methods": {
      "approve(address,uint256)": {
        "details": "Gives permission to `to` to transfer `tokenId` token to another account. The approval is cleared when the token is transferred. Only a single account can be approved at a time, so approving the zero address clears previous approvals. Requirements: - The caller must own the token or be an approved operator. - `tokenId` must exist. Emits an {Approval} event."
      },
      "balanceOf(address)": {
        "details": "Returns the number of tokens in `owner`'s account."
      },
      "getApproved(uint256)": {
        "details": "Returns the account approved for `tokenId` token. Requirements: - `tokenId` must exist."
      },
      "isApprovedForAll(address,address)": {
        "details": "Returns if the `operator` is allowed to manage all of the assets of `owner`. See {setApprovalForAll}."
      },
      "name()": {
        "details": "Returns the token collection name."
      },
      "owner()": {
        "details": "Returns the address of the current owner."
      },
      "ownerOf(uint256)": {
        "details": "Returns the owner of the `tokenId` token. Requirements: - `tokenId` must exist."
      },
      "renounceOwnership()": {
        "details": "Leaves the contract without owner. It will not be possible to call `onlyOwner` functions anymore. Can only be called by the current owner. NOTE: Renouncing ownership will leave the contract without an owner, thereby removing any functionality that is only available to the owner."
      },
      "safeTransferFrom(address,address,uint256)": {
        "details": "Equivalent to `safeTransferFrom(from, to, tokenId, '')`."
      },
      "safeTransferFrom(address,address,uint256,bytes)": {
        "details": "Safely transfers `tokenId` token from `from` to `to`. Requirements: - `from` cannot be the zero address. - `to` cannot be the zero address. - `tokenId` token must exist and be owned by `from`. - If the caller is not `from`, it must be approved to move this token by either {approve} or {setApprovalForAll}. - If `to` refers to a smart contract, it must implement {IERC721Receiver-onERC721Received}, which is called upon a safe transfer. Emits a {Transfer} event."
      },
      "setApprovalForAll(address,bool)": {
        "details": "Approve or remove `operator` as an operator for the caller. Operators can call {transferFrom} or {safeTransferFrom} for any token owned by the caller. Requirements: - The `operator` cannot be the caller. Emits an {ApprovalForAll} event."
      },
      "supportsInterface(bytes4)": {
        "details": "Returns true if this contract implements the interface defined by `interfaceId`. See the corresponding [EIP section](https://eips.ethereum.org/EIPS/eip-165#how-interfaces-are-identified) to learn more about how these ids are created. This function call must use less than 30000 gas."
      },
      "symbol()": {
        "details": "Returns the token collection symbol."
      },
      "tokenURI(uint256)": {
        "details": "Returns the Uniform Resource Identifier (URI) for `tokenId` token."
      },
      "totalSupply()": {
        "details": "Returns the total number of tokens in existence. Burned tokens will reduce the count. To get the total number of tokens minted, please see {_totalMinted}."
      },
      "transferFrom(address,address,uint256)": {
        "details": "Transfers `tokenId` from `from` to `to`. Requirements: - `from` cannot be the zero address. - `to` cannot be the zero address. - `tokenId` token must be owned by `from`. - If the caller is not `from`, it must be approved to move this token by either {approve} or {setApprovalForAll}. Emits a {Transfer} event."
      },
      "transferOwnership(address)": {
        "details": "Transfers ownership of the contract to a new account (`newOwner`). Can only be called by the current owner."
      }
    },
    "version": 1
  },
  "userdoc": {
    "errors": {
      "ApprovalCallerNotOwnerNorApproved()": [
        {
          "notice": "The caller must own the token or be an approved operator."
        }
      ],
      "ApprovalQueryForNonexistentToken()": [
        {
          "notice": "The token does not exist."
        }
      ],
      "ApproveToCaller()": [
        {
          "notice": "The caller cannot approve to their own address."
        }
      ],
      "BalanceQueryForZeroAddress()": [
        {
          "notice": "Cannot query the balance for the zero address."
        }
      ],
      "MintERC2309QuantityExceedsLimit()": [
        {
          "notice": "The `quantity` minted with ERC2309 exceeds the safety limit."
        }
      ],
      "MintToZeroAddress()": [
        {
          "notice": "Cannot mint to the zero address."
        }
      ],
      "MintZeroQuantity()": [
        {
          "notice": "The quantity of tokens minted must be more than zero."
        }
      ],
      "OwnerQueryForNonexistentToken()": [
        {
          "notice": "The token does not exist."
        }
      ],
      "OwnershipNotInitializedForExtraData()": [
        {
          "notice": "The `extraData` cannot be set on an unintialized ownership slot."
        }
      ],
      "TransferCallerNotOwnerNorApproved()": [
        {
          "notice": "The caller must own the token or be an approved operator."
        }
      ],
      "TransferFromIncorrectOwner()": [
        {
          "notice": "The token must be owned by `from`."
        }
      ],
      "TransferToNonERC721ReceiverImplementer()": [
        {
          "notice": "Cannot safely transfer to a contract that does not implement the ERC721Receiver interface."
        }
      ],
      "TransferToZeroAddress()": [
        {
          "notice": "Cannot transfer to the zero address."
        }
      ],
      "URIQueryForNonexistentToken()": [
        {
          "notice": "The token does not exist."
        }
      ]
    },
    "kind": "user",
    "methods": {},
    "version": 1
  },
  "storageLayout": {
    "storage": [
      {
        "astId": 7,
        "contract": "contracts/legendary.nft.sol:NFT",
        "label": "_owner",
        "offset": 0,
        "slot": "0",
        "type": "t_address"
      },
      {
        "astId": 1152,
        "contract": "contracts/legendary.nft.sol:NFT",
        "label": "_currentIndex",
        "offset": 0,
        "slot": "1",
        "type": "t_uint256"
      },
      {
        "astId": 1154,
        "contract": "contracts/legendary.nft.sol:NFT",
        "label": "_burnCounter",
        "offset": 0,
        "slot": "2",
        "type": "t_uint256"
      },
      {
        "astId": 1156,
        "contract": "contracts/legendary.nft.sol:NFT",
        "label": "_name",
        "offset": 0,
        "slot": "3",
        "type": "t_string_storage"
      },
      {
        "astId": 1158,
        "contract": "contracts/legendary.nft.sol:NFT",
        "label": "_symbol",
        "offset": 0,
        "slot": "4",
        "type": "t_string_storage"
      },
      {
        "astId": 1162,
        "contract": "contracts/legendary.nft.sol:NFT",
        "label": "_packedOwnerships",
        "offset": 0,
        "slot": "5",
        "type": "t_mapping(t_uint256,t_uint256)"
      },
      {
        "astId": 1166,
        "contract": "contracts/legendary.nft.sol:NFT",
        "label": "_packedAddressData",
        "offset": 0,
        "slot": "6",
        "type": "t_mapping(t_address,t_uint256)"
      },
      {
        "astId": 1171,
        "contract": "contracts/legendary.nft.sol:NFT",
        "label": "_tokenApprovals",
        "offset": 0,
        "slot": "7",
        "type": "t_mapping(t_uint256,t_struct(TokenApprovalRef)1084_storage)"
      },
      {
        "astId": 1177,
        "contract": "contracts/legendary.nft.sol:NFT",
        "label": "_operatorApprovals",
        "offset": 0,
        "slot": "8",
        "type": "t_mapping(t_address,t_mapping(t_address,t_bool))"
      },
      {
        "astId": 115,
        "contract": "contracts/legendary.nft.sol:NFT",
        "label": "_status",
        "offset": 0,
        "slot": "9",
        "type": "t_uint256"
      },
      {
        "astId": 484,
        "contract": "contracts/legendary.nft.sol:NFT",
        "label": "maxMintPerAddress",
        "offset": 0,
        "slot": "10",
        "type": "t_uint256"
      },
      {
        "astId": 486,
        "contract": "contracts/legendary.nft.sol:NFT",
        "label": "publicStartTime",
        "offset": 0,
        "slot": "11",
        "type": "t_uint32"
      },
      {
        "astId": 488,
        "contract": "contracts/legendary.nft.sol:NFT",
        "label": "publicPrice",
        "offset": 4,
        "slot": "11",
        "type": "t_uint64"
      },
      {
        "astId": 490,
        "contract": "contracts/legendary.nft.sol:NFT",
        "label": "whitelistRoot",
        "offset": 0,
        "slot": "12",
        "type": "t_bytes32"
      },
      {
        "astId": 492,
        "contract": "contracts/legendary.nft.sol:NFT",
        "label": "whitelistMaxMintPerAddress",
        "offset": 0,
        "slot": "13",
        "type": "t_uint256"
      },
      {
        "astId": 494,
        "contract": "contracts/legendary.nft.sol:NFT",
        "label": "whitelistPrice",
        "offset": 0,
        "slot": "14",
        "type": "t_uint64"
      },
      {
        "astId": 824,
        "contract": "contracts/legendary.nft.sol:NFT",
        "label": "_baseTokenURI",
        "offset": 0,
        "slot": "15",
        "type": "t_string_storage"
      }
    ],
    "types": {
      "t_address": {
        "encoding": "inplace",
        "label": "address",
        "numberOfBytes": "20"
      },
      "t_bool": {
        "encoding": "inplace",
        "label": "bool",
        "numberOfBytes": "1"
      },
      "t_bytes32": {
        "encoding": "inplace",
        "label": "bytes32",
        "numberOfBytes": "32"
      },
      "t_mapping(t_address,t_bool)": {
        "encoding": "mapping",
        "key": "t_address",
        "label": "mapping(address => bool)",
        "numberOfBytes": "32",
        "value": "t_bool"
      },
      "t_mapping(t_address,t_mapping(t_address,t_bool))": {
        "encoding": "mapping",
        "key": "t_address",
        "label": "mapping(address => mapping(address => bool))",
        "numberOfBytes": "32",
        "value": "t_mapping(t_address,t_bool)"
      },
      "t_mapping(t_address,t_uint256)": {
        "encoding": "mapping",
        "key": "t_address",
        "label": "mapping(address => uint256)",
        "numberOfBytes": "32",
        "value": "t_uint256"
      },
      "t_mapping(t_uint256,t_struct(TokenApprovalRef)1084_storage)": {
        "encoding": "mapping",
        "key": "t_uint256",
        "label": "mapping(uint256 => struct ERC721A.TokenApprovalRef)",
        "numberOfBytes": "32",
        "value": "t_struct(TokenApprovalRef)1084_storage"
      },
      "t_mapping(t_uint256,t_uint256)": {
        "encoding": "mapping",
        "key": "t_uint256",
        "label": "mapping(uint256 => uint256)",
        "numberOfBytes": "32",
        "value": "t_uint256"
      },
      "t_string_storage": {
        "encoding": "bytes",
        "label": "string",
        "numberOfBytes": "32"
      },
      "t_struct(TokenApprovalRef)1084_storage": {
        "encoding": "inplace",
        "label": "struct ERC721A.TokenApprovalRef",
        "members": [
          {
            "astId": 1083,
            "contract": "contracts/legendary.nft.sol:NFT",
            "label": "value",
            "offset": 0,
            "slot": "0",
            "type": "t_address"
          }
        ],
        "numberOfBytes": "32"
      },
      "t_uint256": {
        "encoding": "inplace",
        "label": "uint256",
        "numberOfBytes": "32"
      },
      "t_uint32": {
        "encoding": "inplace",
        "label": "uint32",
        "numberOfBytes": "4"
      },
      "t_uint64": {
        "encoding": "inplace",
        "label": "uint64",
        "numberOfBytes": "8"
      }
    }
  }
}